S01C000041726475696E6F4D6963726F546F74757269616C2E73726563E8
S11300000C94C6010C94EE010C94EE010C94EE01D8
S11300100C94EE010C94EE010C94EE010C94F0019E
S11300200C94EE010C94D3030C94170B0C94460C13
S11300300C94EE010C94EE010C94EE010C94EE0180
S11300400C94EE010C94EE010C94EE010C94EE0170
S11300500C94EE010C94EE010C94EE010C945607F2
S11300600C94EE010C94EE010C94EE010C94EE0150
S11300700C94EE010C94EE010C94EE010C94EE0140
S11300800C94EE010C94EE010C94EE010C94EE0130
S11300900C948E050C94EE010C94EE010C94EE017C
S11300A00C94EE010C94EE010C94EE0100C20100DC
S11300B00100110011000C0000E100000A002500FD
S11300C0250021000096000019003900390036008F
S11300D0127A00001F0046004600440080700000B1
S11300E022004D004D004A00004B00003600750010
S11300F075007200403800004A009C009C00990082
S1130100802500007200EC00EC00E900C012000041
S1130110E900DA01DA01D70160090000D701B6036A
S1130120B603B303B0040000B3036E076E076B0796
S1130130580200006E07DC0EDC0ED80E2C01000005
S1130140DC0EC11DC11DBE1D0000000024002700DF
S11301502A002D00300000000000250028002B009C
S11301602E003100000000002300260029002C008E
S11301702F0004040404040304050202020204031D
S1130180020202020606060606060404020202042D
S11301900408020110408040102040804080080282
S11301A00401804020100201108010204040000013
S11301B0000200080E0000030401000B0000000010
S11301C00000000000000000000000000706050415
S11301D00100080A0B0C0D09080B000202020100C1
S11301E00904000001020200000524001001052496
S11301F00101010424020605240600010705810308
S113020010004009040100020A0000000705020270
S11302104000000705830240000004030904220390
S1130220410072006400750069006E006F002000D8
S11302304D006900630072006F0020002000200060
S11302401803410072006400750069006E006F00BD
S113025020004C004C00430012010002000000404A
S11302604123378000010102000112010002020053
S113027000404123378000010102000100C1808158
S1130280C105010902A1010901A10085010509199E
S11302900129031500250195037501810295017556
S11302A005810305010930093109381581257F7558
S11302B00895038106C0C005010906A10185020550
S11302C00719E029E71500250175019508810295B4
S11302D0017508810395067508150025650507193C
S11302E00029658100C0090402000103000000091F
S11302F0210101000122650007058403400001007B
S1130300000000000000002A2B280000000000006C
S11303100000000000000000000000000000002CAD
S11303209EB4A0A1A2A434A6A7A5AE362D37382723
S11303301E1F20212223242526B333B62EB7B89FAF
S11303408485868788898A8B8C8D8E8F90919293F1
S11303509495969798999A9B9C9D2F3130A3AD358F
S11303600405060708090A0B0C0D0E0F10111213D1
S11303701415161718191A1B1C1DAFB1B0B50000BF
S1130380590252072B09630BC90D620211241FBEC7
S1130390CFEFDAE0DEBFCDBF11E0A0E0B1E0EAE1EB
S11303A0FEE102C005900D92AE36B107D9F722E006
S11303B0AEE6B1E001C01D92AB3BB207E1F713E03A
S11303C0CAE8D3E004C02297FE010E94FC0EC038A4
S11303D0D107C9F70E94FD090C94000F0C9400008A
S11303E01F920F920FB60F9211248F9381E0809386
S11303F08A018F910F900FBE0F901F901895CF9385
S1130400DF9361E087E10E944D0861E086E10E948C
S11304104D08CEE0D1E061E088810E944D0861E0A2
S1130420809110010E944D0860E0809112010E94A9
S11304304D0860E088810E94DA0840E855E260E0F7
S113044070E087E992E00E940D0940E855E260E01F
S113045070E08EE691E00E947F04DF91CF910C94CE
S1130460660261E086E10E94DA0861E087E10E94A9
S1130470DA0868EE73E080E090E00E949E0760E096
S113048086E10E94DA0860E087E10E94DA0868EEFB
S113049073E080E090E00E949E0760E177E280E0F4
S11304A090E00E949E076EE171E08EE691E00C946C
S11304B0580A20E040911001609112018EE691E00B
S11304C00C944F048EE691E00C945E05F894EE9A39
S11304D0EAE6F0E080818062808378940895209138
S11304E0CD013091CE0128173907B9F490918B01D1
S11304F080918C01981789F0E0918B01F0E0E3572B
S1130500FE4F808120918B0130E02F5F3F4F2F738E
S1130510332720938B0190E008958FEF9FEF089588
S11305202091CD013091CE012817390771F49091B3
S11305308B0180918C01981741F0E0918B01F0E0E0
S1130540E357FE4F808190E008958FEF9FEF089569
S11305502091CD013091CE012817390771F4809193
S11305608C0120918B0190E0805C9F4F821B91094C
S113057060E470E00E94D20E089580E090E0089557
S11305802091CD013091CE012817390739F48FB766
S1130590F89410928C0110928B018FBF0895DC01A6
S11305A05196ED91FC915297208150968C918095B3
S11305B082238083089520E001972FEF8F3F9207D5
S11305C0D9F708952091CD013091CE01281739072C
S11305D089F0FC01238D2E7F238F2FB7F89410927E
S11305E08C0110928B019093CE018093CD012FBF8B
S11305F081E0089580E00895EF92FF920F931F9396
S1130600CF93DF93EC018B8DEE85FF859D8581FF74
S113061004C08081892329F447C08081892309F09B
S113062043C08B899C890E94DB0208E010E0EE2421
S1130630E394F12C8D899E890E94DB02EE85FF856F
S113064080819D85892311F0FE2803C08E2D80951D
S1130650F822EE0C015011090115110559F78F8983
S1130660988D0E94DB028B8D81FDF09480918C012A
S113067020918B0190E001968F73992730E08217C7
S1130680930779F0E0918C01F0E0E357FE4FF0829C
S113069080918C0190E001968F73992780938C014F
S11306A003C08B8D81608B8FDF91CF911F910F9150
S11306B0FF90EF900895611102C00C94CF02DC0109
S11306C05196ED91FC915297208150968C91282B54
S11306D020830895DF92EF92FF920F931F93CF939D
S11306E0DF93EC01E62E898D9A8D892B39F481E014
S11306F090E09B838A8380E090E04DC0DFB6F8945D
S11307006B8D66956170CE010E945B03898D9A8D15
S113071005960E94DB028B8D08E010E0FF24F39421
S113072081FF19C08F2D8E2121F0CE010E94CF02AE
S113073004C061E0CE010E945B03898D9A8D0E9402
S1130740DB02FF0C015011090115110559F7CE0107
S11307500E94CF0219C08F2D8E2129F061E0CE01B5
S11307600E945B0303C0CE010E94CF02898D9A8D43
S11307700E94DB02FF0C015011090115110559F704
S113078061E0CE010E945B03DFBE898D9A8D0E94D9
S1130790DB0281E090E0DF91CF911F910F91FF90F8
S11307A0EF90DF9008951F920F920FB60F921124CD
S11307B02F933F934F935F936F937F938F939F9365
S11307C0AF93BF93EF93FF938091CD019091CE01AE
S11307D0009711F00E94FC02FF91EF91BF91AF913D
S11307E09F918F917F916F915F914F913F912F9145
S11307F00F900FBE0F901F9018951F93CF93DF9308
S1130800EC01162F61E0812F0E944D086B8D6695D7
S1130810617081E06827812F0E94DA08812F90E0BF
S1130820FC01E057FE4FE491E88BFC01EE58FE4FCB
S1130830E491F0E0EE0FFF1FEA5AFE4F8591949188
S11308409A8B898BDF91CF911F9108951F93CF933A
S1130850DF93EC01162F60E0812F0E944D088B8DF1
S113086081FD04C061E0812F0E94DA081C87812F7A
S113087090E0FC01E057FE4FE491ED87FC01EE5857
S1130880FE4FE491F0E0EE0FFF1FEC59FE4F85910F
S113089094919F878E87DF91CF911F910895FF9246
S11308A00F931F93CF93DF93EC01F62E522F1B82ED
S11308B01A8208EE13E020E030E00C831D832E83BF
S11308C03F8384E391E0998388831C8A1B8A1E8A70
S11308D01D8A188E1F8A1A8E198E8B8D8E7F50FB5F
S11308E081F98B8F642FCE010E94FD036F2DCE0101
S11308F0DF91CF911F910F91FF900C9426040F93D9
S11309001F93CF93DF93EC011A8E198E188E1F8AD2
S11309101E8A1D8AACEAB0E080E090E0FD010591FA
S1130920159125913491041715072607370709F007
S113093031C02CE0289FF001299FF00D1124E055CF
S1130940FF4F259134913C8B2B8B2CE0289FF00199
S1130950299FF00D1124EE54FF4F259134913E8BC5
S11309602D8B2CE0289FF001299FF00D1124EC54CD
S1130970FF4F25913491388F2F8B2CE0289FF00165
S1130980299FF00D1124EA54FF4F859194919A8F79
S1130990898F08C001961C968D30910509F0BECF51
S11309A01C8A1B8A8F89988D892B09F447C08C85F2
S11309B098EF980F943038F092EF980F943018F025
S11309C08A518330B8F58091680081608093680013
S11309D08C8598EF980F943058F022EF280F24302C
S11309E038F026EE280F233080F5ABE6B0E02FC0B8
S11309F0ABE6B0E0EBE6F0E02081943010F49CEF3D
S1130A0009C08E3071F08F3071F0803171F0813116
S1130A1071F09AEE980F81E001C0880F9A95EAF779
S1130A2007C088E005C082E003C084E001C081E023
S1130A30822B8C93898D9A8D0E94DB02CE01DF91EB
S1130A40CF911F910F910C94E202A0E0B0E023300B
S1130A5088F2E0E0F0E0D0CFFC01948528EF290F84
S1130A60243040F082EF890F843020F086EE890F25
S1130A70833018F530916B00243010F42CEF09C04A
S1130A809E3089F09F3089F0903189F0913189F05E
S1130A902AEE290F81E090E0022E01C0880F0A940B
S1130AA0EAF7809507C087EF05C08DEF03C08BEF91
S1130AB001C08EEF832380936B00089524E331E01B
S1130AC0FC01318320830C942C05613298F420912D
S1130AD03C02243089F46093F101FC0183EF91E03E
S1130AE0DC012A2F281B261718F421912D93F9CF06
S1130AF080E0089581E0089582E0089585ED809373
S1130B00BC008091BC0084FDFCCF10923C0208958F
S1130B1085EC8093BC0010923C0208951F920F92C2
S1130B200FB60F9211242F933F934F935F936F93BC
S1130B307F938F939F93AF93BF93EF93FF93809192
S1130B40B900887F803609F49CC068F5883209F4BE
S1130B505BC090F4803109F454C038F4882309F45C
S1130B60F5C0883009F44DC0F5C0883109F44CC093
S1130B70803209F45DC0EEC0803409F468C048F4E2
S1130B80803309F455C0883309F0E4C08093CF0161
S1130B90A8C0803509F44FC0883509F45DC0883495
S1130BA009F0D8C0D5C0883909F4C6C0A8F488377C
S1130BB009F467C038F4883609F463C0803709F44F
S1130BC060C0C8C0883809F4B7C0803909F45FC070
S1130BD0803809F0BFC05BC0803B09F485C038F49D
S1130BE0803A09F466C0883A09F47EC0B3C0803CF8
S1130BF009F4A6C0883C09F4A3C0883B09F489C061
S1130C00A9C080913B0210C09091140280911302FC
S1130C10981770F5E091140281E08E0F809314020E
S1130C20F0E0EB5EFD4F80818093BB0085EC85C0D6
S1130C308093CF018DC0E091140281E08E0F8093E8
S1130C4014028091BB00F0E0EB5EFD4F8083909135
S1130C501402809113026DC0E091140281E08E0FA2
S1130C60809314028091BB00F0E0EB5EFD4F808323
S1130C7080913A0281116CC081E08093390284EA48
S1130C8060C083E080933C021092D001CFCF80916A
S1130C90D001803208F050C0E091D00181E08E0F85
S1130CA08093D0018091BB00F0E0EF52FE4F80832F
S1130CB0BDCF8091D001803230F4E091D001F0E0DA
S1130CC0EF52FE4F10820E947E056091D00170E0C9
S1130CD0E0913502F091360281ED91E00995109290
S1130CE0D0010E94880536C084E080933C021092B3
S1130CF0F2011092F101E0913702F0913802099566
S1130D008091F101811105C081E08093F10110927D
S1130D10F301E091F20181E08E0F8093F201F0E0A3
S1130D20ED50FE4F80818093BB009091F201809141
S1130D30F101981708F47ACF85E88093BC000AC0C3
S1130D4085EC8093BC0010923C0204C01092CF0149
S1130D500E947E05FF91EF91BF91AF919F918F917A
S1130D607F916F915F914F913F912F910F900FBEA3
S1130D700F901F90189580916C0290E020916D0265
S1130D80821B9109089520916D0280916C022817AD
S1130D9050F4E22FF0E0E259FD4F808190E02F5FA4
S1130DA020936D0208958FEF9FEF0895E0916D02F7
S1130DB080916C02E81730F4F0E0E259FD4F808135
S1130DC090E008958FEF9FEF08950895CF92DF92FA
S1130DD0EF92FF920F931F93CF93DF937C01CB018C
S1130DE08A0120914902222389F0EB016B01C40E90
S1130DF0D51ECC15DD0569F06991D701ED91FC9103
S1130E000190F081E02DC7010995F3CF642F0E9472
S1130E106505C801DF91CF911F910F91FF90EF906D
S1130E20DF90CF900895CF93DF931F92CDB7DEB7B5
S1130E306983209149022223D1F020914A02203271
S1130E4040F021E030E0FC013383228380E090E035
S1130E5015C080914B02E82FF0E0E45BFD4F9981CF
S1130E6090838F5F80934B0280934A0205C061E0B8
S1130E70CE0101960E94650581E090E00F90DF911C
S1130E80CF910895FC011382128248EE53E060E092
S1130E9070E0448355836683778384E491E091838F
S1130EA0808308958DE392E00C9442071F920F9281
S1130EB00FB60F9211242F933F938F939F93AF9369
S1130EC0BF938091920290919302A0919402B09169
S1130ED09502309196020196A11DB11D232F2D5F1D
S1130EE02D3720F02D570196A11DB11D2093960298
S1130EF08093920290939302A0939402B0939502EC
S1130F0080918E0290918F02A0919002B0919102F3
S1130F100196A11DB11D80938E0290938F02A09320
S1130F209002B0939102BF91AF919F918F913F91A5
S1130F302F910F900FBE0F901F9018959B01AC013D
S1130F407FB7F89480918E0290918F02A0919002C5
S1130F50B091910266B5A89B05C06F3F19F0019648
S1130F60A11DB11D7FBFBA2FA92F982F8827860FE7
S1130F70911DA11DB11D62E0880F991FAA1FBB1FFF
S1130F806A95D1F7BC012DC0FFB7F89480918E0209
S1130F9090918F02A0919002B0919102E6B5A89B26
S1130FA005C0EF3F19F00196A11DB11DFFBFBA2F77
S1130FB0A92F982F88278E0F911DA11DB11DE2E046
S1130FC0880F991FAA1FBB1FEA95D1F7861B970BA1
S1130FD0885E9340C8F221503040404050406851F0
S1130FE07C4F211531054105510571F6089578941A
S1130FF084B5826084BD84B5816084BD85B582601A
S113100085BD85B5816085BDEEE6F0E080818160B7
S11310108083E1E8F0E010828081826080838081B7
S113102081608083E0E8F0E0808181608083E1E991
S1131030F0E0808182608083808181608083E0E948
S1131040F0E0808181608083E1ECF0E08081846065
S11310508083808182608083808181608083E3ECEF
S1131060F0E0808181608083E0ECF0E08081826048
S11310708083E2ECF0E0808181608083EAE7F0E045
S113108080818460808380818260808380818160AC
S113109080838081806880830895CF93DF93482F75
S11310A050E0CA0180579E4FFC0134914E585E4F68
S11310B0FA018491882369F190E0880F991FFC015B
S11310C0E85BFE4FA591B491FC01EA5AFE4FC5912D
S11310D0D491662351F42FB7F8948C91932F909563
S11310E089238C93888189230BC0623061F42FB7E4
S11310F0F8948C91932F909589238C938881832BDA
S113110088832FBF06C09FB7F8948C91832B8C9350
S11311109FBFDF91CF910895883071F1893068F4D1
S1131120823031F1833020F4813009F042C01DC097
S1131130833089F08430E9F512C08B3059F18C305A
S113114028F48930E9F08A30A1F51EC08C3031F1E1
S11311508E3079F529C0809180008F7703C080910B
S113116080008F7D80938000089584B58F7702C0BE
S113117084B58F7D84BD0895809190008F7707C0DA
S1131180809190008F7D03C080919000877F809331
S1131190900008958091C0008F7703C08091C000B3
S11311A08F7D8093C00008958091C200877F8093D3
S11311B0C2000895FF920F931F93F62E482F50E01C
S11311C0CA0182559E4FFC012491CA0180579E4F4B
S11311D0FC0114914E585E4FFA0104910023C9F0AA
S11311E0222319F0822F0E948C08E02FF0E0EE0FEA
S11311F0FF1FEA5AFE4FA591B4919FB7F894FF20C0
S113120021F48C911095812302C08C91812B8C93B5
S11312109FBF1F910F91FF9008952FEF3FEFFC01A7
S1131220358724870895DF93CF930F92CDB7DEB728
S1131230FC016983A081B18112962D913C91139791
S1131240BE016F5F7F4F41E050E0F90109950F90B7
S1131250CF91DF91089510929A021092990288EE2C
S113126093E0A0E0B0E080939B0290939C02A09353
S11312709D02B0939E0284E591E09093980280933E
S113128097028FEF9FEF9093A4028093A302089597
S1131290CF93DF93EC0180911B01882341F083E01D
S11312A00E94840B1816190614F49C0106C081E0F0
S11312B090E09B838A8320E030E0C901DF91CF91E5
S11312C0089583E00E940D0B0895FC012485358563
S11312D037FD05C08FEF9FEF9587848704C082E0B8
S11312E00E94980A9C01C9010895CF93DF93EC01F1
S11312F08C859D8597FF05C082E00E94980A9D8792
S11313008C878C859D85DF91CF910895FC01848520
S1131310958597FD08C082E00E945B0A282F30E083
S11313202F5F3F4F05C082E00E945B0A282F30E008
S1131330C9010895FC0180818E5F808380E868ED97
S113134071E042E450E00E94B10A0895FC018181F9
S11313509081913A59F4813209F04CC080E064E103
S113136071E047E050E00E94B10A42C0913209F0B6
S113137041C0803239F484E191E067E070E00E947A
S1131380F50A36C0823209F035C0828180931B0190
S11313908091140190911501A0911601B09117014B
S11313A0805B9440A040B04019F580911B0180FD02
S11313B012C087E797E790930108809300082BE019
S11313C088E190E00FB6F894A895809360000FBE72
S11313D0209360000DC088E10FB6F89480936000FC
S11313E0109260000FBEA895109201081092000898
S11313F081E0089580E008950895CF93DF930E94DB
S1131400F7070E94FC098DEA92E00E94640B0E9497
S1131410FF01C0E0D0E00E9431022097E1F30E9476
S11314200000F9CFCF92DF92EF92FF920F931F93B8
S1131430CF93DF937C016B018A01C0E0D0E00FC041
S1131440D6016D916D01D701ED91FC910190F08170
S1131450E02DC7010995C80FD91F0150104001158F
S1131460110571F7CE01DF91CF911F910F91FF907C
S1131470EF90DF90CF900895CF93DF93EC01611547
S1131480710519F420E030E00FC0DB010D9000205D
S1131490E9F71197A61BB70BE881F9810280F38164
S11314A0E02DAD0109959C01C901DF91CF9108950B
S11314B00E943C0A08959FB7F89487708093E900CE
S11314C08091F2009FBF0895282F8091A70288235E
S11314D0C1F057FF1AC015C0289A9093A6028091B4
S11314E0F1008193E217F307B9F74115510539F07B
S11314F08091F200882319F48BE68093E800AFBF53
S113150002C04FEF5FEFCA010895AFB7F894277098
S11315102093E9008091F200282F30E0241735074A
S11315200CF4A901FB019B01240F311D94E6DACFD1
S1131530DF93CF930F92CDB7DEB7BE016F5F7F4FBE
S113154041E050E00E94640A019719F02FEF3FEF49
S113155003C08981282F30E0C9010F90CF91DF911A
S11315600895FF920F931F93F82E142F052F409187
S1131570AA025091AB02212F302FC901DC01FB01DB
S11315806EEF29C0F7FE02C0949101C090812091B2
S1131590A8023091A90224173507ACF48091E80021
S11315A08570E1F38091E80082FF03C02FEF3FEFE5
S11315B017C09093F100C90101968F739070892B25
S11315C011F46093E8002F5F3F4F3093A9022093FA
S11315D0A802119731961097A9F6812F902F9C019C
S11315E0C9011F910F91FF9008959C018091E8001B
S11315F082FFFCCFF901260F311D03C08091F10059
S11316008193E217F307D1F7289A84E68093A60220
S11316108BEF8093E800CB0108958093E9008091DB
S1131620F200882319F08AE38093E80008951F925A
S11316300F920FB60F9211248F939F938091E10024
S11316401092E100982F83FF0FC01092E90081E00F
S11316508093EB001092EC0082E38093ED001092F3
S1131660A70288E08093F00092FF26C083E0809375
S1131670E9008091F200882319F08AE38093E8005E
S11316808091A502882351F08091A5028150809316
S1131690A5028091A502882309F45D988091A60291
S11316A0882351F08091A60281508093A6028091F4
S11316B0A602882309F428989F918F910F900FBE5A
S11316C00F901F90189508951092A70281E08093BF
S11316D0D70080EA8093D80082E189BD09B400FE76
S11316E0FDCF61E070E080E090E00E949E0780E919
S11316F08093D8008CE08093E2001092E000559A29
S1131700209A5D98289808955F926F927F928F92A5
S11317109F92AF92BF92CF92DF92EF92FF920F937C
S11317201F93CF93DF93E82E842E752E8091A7020A
S1131730882371F18B01242F352FC901EC017AEF35
S1131740F72E67E0962E9E2050E4552E8E2D90E0C5
S113175040E2A42EB12CA822B9223AE3632E20E45D
S1131760C22ED12CC822D9225CC09FB7F894909283
S1131770E9008091E80085FD02C020E004C080916A
S1131780F200252D281B9FBF222361F4FA9419F43B
S11317902FEF3FEF51C061E070E080E090E00E94E5
S11317A09E073FC0822F90E0C817D9070CF42C2F56
S11317B04FB7F8949092E9008091E80085FF30C01B
S11317C0C21BD109A114B10421F406C01092F10086
S11317D021502223D9F719C0E7FC03C0F801922F46
S11317E010C0C801322F06C0FC010196E491E093B9
S11317F0F10031503323C1F706C081918093F10089
S113180091509923D1F7020F111D8091E80085FFB3
S113181005C0209729F4C114D10411F06092E800A6
S11318204FBF209709F0A1CF5D9A84E68093A5026B
S1131830282D372DC9019C01C901DF91CF911F913A
S11318400F91FF90EF90DF90CF90BF90AF909F905B
S11318508F907F906F905F9008950F931F93DF9305
S1131860CF930F92CDB7DEB719828E010F5F1F4F52
S1131870C8010E949A09C8010E94C60E898190E09D
S11318800F90CF91DF911F910F9108951F920F92A6
S11318900FB60F921124EF92FF921F932F933F9351
S11318A04F935F936F937F938F939F93AF93BF9364
S11318B0EF93FF93DF93CF93CDB7DEB76197DEBF8E
S11318C0CDBF1092E9008091E80083FF0FC1FE01B3
S11318D031969E01275F3F4F03C08091F1008193B1
S11318E0E217F307D1F7289A84E68093A60282EFE1
S11318F08093E800998197FF05C08091E80080FFFC
S1131900FCCF03C08EEF8093E800292F30E0C9019B
S113191080769070892B09F0C2C08A81882329F4CB
S11319201092F1001092F100D6C0813009F4D3C0B6
S1131930833009F4D0C0853049F48091E80080FFF9
S1131940FCCF8B8180688093E300C5C0863009F0AA
S11319507CC01C81EF80F8841230C1F51092E9003C
S11319601092A9021092A8021092AB021092AA023D
S11319700E942D0C99E0FE013996DF01292F1D925A
S11319802A95E9F799871A8791E09E8790E8988BC2
S11319909AEF998B2091A8023091A902275F3F4FBB
S11319A03C872B878D871092E9001092A902109230
S11319B0A802F092AB02E092AA0280E0BF0149E0E3
S11319C050E00E94B10A0E942D0C85C01092E900DB
S11319D01092A9021092A802F092AB02E092AA021D
S11319E0123241F482E290E00E94BE0E892B09F487
S11319F076C071C0113079F488E0E816F10419F466
S1131A0081E08093AC028091AC02882309F06BC022
S1131A10E8E5F2E013C0133009F061C08B8188233C
S1131A2019F4EAE1F2E00AC0823019F4EEE1F2E0DE
S1131A3005C0813009F053C0E0E4F2E0449180E84D
S1131A40BF0150E00E94B10A46C0873009F447C084
S1131A50883021F481E08093F1003DC08930D9F5CC
S1131A6023703070232BD9F5EDE7F2E091E031E0FB
S1131A7026E39093E9003093EB0084918093EC008B
S1131A802093ED009F5F3196953099F78EE7809310
S1131A90EA001092EA008B818093A7021CC08F8118
S1131AA098851092E9001092A9021092A8029093CE
S1131AB0AB028093AA028D81882329F4CE0101967A
S1131AC00E94A60906C0823051F4CE0101960E94FC
S1131AD08F0D882321F08EEF8093E80007C081E208
S1131AE08093EB0003C0EAE6F2E0A8CF6196DEBF84
S1131AF0CDBFCF91DF91FF91EF91BF91AF919F91B6
S1131B008F917F916F915F914F913F912F911F9191
S1131B10FF90EF900F900FBE0F901F901895FC014F
S1131B2091818081813A31F4913089F080E0933061
S1131B3089F40DC0813269F49B3021F48281809351
S1131B401C0105C09A3029F4828180931D0181E033
S1131B50089580E00895EF92FF920F931F938C01F4
S1131B60E62EDC01ED91FC910480F581E02D0995D0
S1131B70F82ED801ED91FC910680F781E02DC80183
S1131B806E2D09958F2D90E01F910F91FF90EF908E
S1131B9008951092AE021092B2021092B10284E63D
S1131BA091E09093B0028093AF020895EF92FF9278
S1131BB00F931F93DF93CF930F92CDB7DEB7898333
S1131BC08B017A0184E0BE016F5F7F4F41E050E0FA
S1131BD00E94840B84E4B801A7010E94840B0F9037
S1131BE0CF91DF911F910F91FF90EF90089582E0C4
S1131BF048E050E00E94D60D0895FC011682178239
S1131C00108611861286138614823496BF010E94B0
S1131C10F70D0895DC01683810F0685829C0E62FE4
S1131C20F0E067FF13C0E058F04081E090E002C0AC
S1131C30880F991FEA95E2F7809514962C911497D2
S1131C40282314962C93149760E012C0E150FD4FA2
S1131C506491662319F420E030E01DC067FF08C0DA
S1131C6014968C9114978D7F14968C9314976F7798
S1131C70FD0190E0662321F08681861709F416821F
S1131C809F5F31969630B1F7CD011496BD010E9445
S1131C90F70D21E030E0C9010895CF93DF93DC0113
S1131CA0683810F0685825C0E62FF0E067FF12C0CE
S1131CB0E058F04081E090E002C0880F991FEA9557
S1131CC0E2F714962C911497282B14962C931497BE
S1131CD060E00FC0E150FD4F64916623D9F167FFC6
S1131CE008C014968C911497826014968C93149760
S1131CF06F7716968C9116978617A9F117968C9183
S1131D001797861781F118968C911897861759F1B1
S1131D1019968C911997861731F11A968C911A9706
S1131D20861709F11B968C911B978617E1F0ED013C
S1131D30E0E0F0E09E2F8E81882321F4EA0FFB1F60
S1131D40668306C09F5F31962196E630F10591F7D0
S1131D50963049F481E090E013969C938E93129709
S1131D6020E030E007C0CD011496BD010E94F70DBC
S1131D7021E030E0C901DF91CF91089580E861E866
S1131D8072E045E650E00E94B10A0895FC018081AA
S1131D908F5F808380E866EE72E049E150E00E9444
S1131DA0B10A089597FB072E16F4009407D077FD27
S1131DB009D00E94E60E07FC05D03EF4909581956B
S1131DC09F4F0895709561957F4F0895AA1BBB1B83
S1131DD051E107C0AA1FBB1FA617B70710F0A61B27
S1131DE0B70B881F991F5A95A9F780959095BC0148
S1131DF0CD010895EE0FFF1F0590F491E02D099495
S1131E0013E0CAE8D3E004C0FE010E94FC0E22964F
S10D1E10CC38D107C9F7F894FFCFCE
S1131E1A6E616E00696E66006F7666002E000900B8
S1131E2A0A000B0000E100000000000001016161EA
S1131E3A616161613A62626262623A636363630026
S1131E4A000000006A03120AA8026F029002C0028C
S1131E5A000000001307E606BB06C306D606E5061D
S1131E6A0000000013094809860965097509610912
S1111E7A00000000AB0D120A4D0E0A0EFD0D05
S9030000FC
